testのtransactionの見える化
https://blockchain.info/ja/decode-tx

0100000004bd652680129d4aaafab208b884534d5830de8c607b5d950ecf2ba36922cd1b58000000006a473044022021e981ab2620ddb1481a3cfd6631e61a6412cfe3cce5c57c7dbdd811be1f7223022008825670e5927a3524df8416d1176adfc2ec26d3314c93474e681cd279345f6101210319d51aaa35fdbd38f9207d4a4470cfc5f35bc1782b1378d08684565bbe861b0dffffffffc52389586f8d502a41931d7763e2673cb914eb80e779fbe572fe28b2834c9476000000006a4730440220364dbe4da943f70f15467419fd845b2150e5c60e8338dbec35d8018c2964d87402205d703a4c705c9f5d17cbcc31c9853f3ea38394292ef3448b7bbdea7a12f15c3501210319d51aaa35fdbd38f9207d4a4470cfc5f35bc1782b1378d08684565bbe861b0dffffffff3377b5b1a483d60231a3ebbe0447e3103a18ea9ec619bf7ad50fab4bc9e0d425000000006a47304402207c03135c13d468b6938c41d957fe91ce4fff075bd0f2180c7dcd4267a99dddc4022006d03ef3ac746566548e50dbd7474d92024f999d08991eb0e18e7fadc44a01da01210319d51aaa35fdbd38f9207d4a4470cfc5f35bc1782b1378d08684565bbe861b0dffffffff94fbb1f76d33ba5170b791e84b502981f0c925f9da63468e3b27b317888892ea000000006a473044022000ab8ba782987e68d615ea594c8e05913ff0362aa1419b7ffe50d3a174a2aff302207e740c2e110033cbcd17dfc3c2158a1e62697777e30c7eb90405aae208e63d4801210319d51aaa35fdbd38f9207d4a4470cfc5f35bc1782b1378d08684565bbe861b0dffffffff0288130000000000001976a91416a0f6532c1a8842be5bf2026da8f2bb51d8cc9388acd819870e000000001976a91416a0f6532c1a8842be5bf2026da8f2bb51d8cc9388ac00000000
=>

{
   "lock_time":0,
   "size":666,
   "inputs":[
      {
         "prev_out":{
            "index":0,
            "hash":"581bcd2269a32bcf0e955d7b608cde30584d5384b808b2faaa4a9d12802665bd"
         },
         "script":"473044022021e981ab2620ddb1481a3cfd6631e61a6412cfe3cce5c57c7dbdd811be1f7223022008825670e5927a3524df8416d1176adfc2ec26d3314c93474e681cd279345f6101210319d51aaa35fdbd38f9207d4a4470cfc5f35bc1782b1378d08684565bbe861b0d"
      },
      {
         "prev_out":{
            "index":0,
            "hash":"76944c83b228fe72e5fb79e780eb14b93c67e263771d93412a508d6f588923c5"
         },
         "script":"4730440220364dbe4da943f70f15467419fd845b2150e5c60e8338dbec35d8018c2964d87402205d703a4c705c9f5d17cbcc31c9853f3ea38394292ef3448b7bbdea7a12f15c3501210319d51aaa35fdbd38f9207d4a4470cfc5f35bc1782b1378d08684565bbe861b0d"
      },
      {
         "prev_out":{
            "index":0,
            "hash":"25d4e0c94bab0fd57abf19c69eea183a10e34704beeba33102d683a4b1b57733"
         },
         "script":"47304402207c03135c13d468b6938c41d957fe91ce4fff075bd0f2180c7dcd4267a99dddc4022006d03ef3ac746566548e50dbd7474d92024f999d08991eb0e18e7fadc44a01da01210319d51aaa35fdbd38f9207d4a4470cfc5f35bc1782b1378d08684565bbe861b0d"
      },
      {
         "prev_out":{
            "index":0,
            "hash":"ea92888817b3273b8e4663daf925c9f08129504be891b77051ba336df7b1fb94"
         },
         "script":"473044022000ab8ba782987e68d615ea594c8e05913ff0362aa1419b7ffe50d3a174a2aff302207e740c2e110033cbcd17dfc3c2158a1e62697777e30c7eb90405aae208e63d4801210319d51aaa35fdbd38f9207d4a4470cfc5f35bc1782b1378d08684565bbe861b0d"
      }
   ],
   "version":1,
   "vin_sz":4,
   "hash":"9f1ec22997e8246bfd3dbdf4c64bc8bc02641ed079f2234ebe18c225a5a501d7",
   "vout_sz":2,
   "out":[
      {
         "script_string":"OP_DUP OP_HASH160 16a0f6532c1a8842be5bf2026da8f2bb51d8cc93 OP_EQUALVERIFY OP_CHECKSIG",
         "address":"134eh55zj7V4PHGbqwkxLFPGcc1cFDxrU1",
         "value":5000,
         "script":"76a91416a0f6532c1a8842be5bf2026da8f2bb51d8cc9388ac"
      },
      {
         "script_string":"OP_DUP OP_HASH160 16a0f6532c1a8842be5bf2026da8f2bb51d8cc93 OP_EQUALVERIFY OP_CHECKSIG",
         "address":"134eh55zj7V4PHGbqwkxLFPGcc1cFDxrU1",
         "value":243735000,
         "script":"76a91416a0f6532c1a8842be5bf2026da8f2bb51d8cc9388ac"
      }
   ]
}